:020000040800F2
:100000008846022079430008C5430008D54300080C
:10001000E5430008F543000805440008000000001F
:10002000000000000000000000000000C5430008C0
:10003000C543000800000000C5430008FD39000862
:10004000C5430008C5430008C5430008C543000870
:10005000C5430008C5430008C5430008C543000860
:10006000C5430008C5430008C5430008C543000850
:10007000C5430008C5430008C5430008C543000840
:10008000C5430008C5430008C5430008C543000830
:10009000C5430008C5430008C5430008C543000820
:1000A000C5430008C5430008C5430008C543000810
:1000B00065910208C5430008C5430008C543000810
:1000C000C5430008C5430008C5430008C5430008F0
:1000D000C5430008F9020008C5430008C5430008ED
:1000E00049430008C5430008C5430008C54300084C
:1000F000C5430008C5430008C5430008C5430008C0
:10010000C543000881E30208C5430008C543000851
:10011000C5430008C5430008C5430008C54300089F
:10012000C5430008C5430008C543000885E302082D
:10013000C5430008C5430008C5430008C54300087F
:10014000C5430008C5430008C5430008C54300086F
:10015000C5430008C5430008C5430008C54300085F
:10016000C5430008C5430008C5430008C54300084F
:10017000C54300089D910208C5430008C543000817
:10018000C5430008C5430008C5430008C54300082F
:10019000C5430008C5430008C5430008C54300081F
:1001A000D1380008C5430008C543000800B5012048
:1001B00083B0014627F0A6F802A9012341F8083DC3
:1001C00003220023694607488DF804308DF8063075
:1001D0008DF807308DF8052026F01EF903B05DF884
:1001E00004FB00BF0000024008B50121034826F0CF
:1001F0008DF9003018BF012008BD00BF000002408B
:100200002DE9F041012088B0314F324E014627F0F0
:1002100079F81020012127F0A5F838460921072296
:1002200026F098F90DF1200838460A21072226F019
:1002300091F94FF4007348F8183D0024012502227B
:100240003846414603238DF80C208DF80D308DF88B
:100250000E408DF80F5026F0DFF84FF480634146D2
:100260003846029326F0D8F82946304628F0B6FCE6
:100270004FF4E13204A90C2330460492ADF81A3051
:10028000ADF81440ADF81640ADF81840ADF81C407C
:1002900028F006FC4FF4A06026F01EFE252301A8DE
:1002A0008DF804308DF805408DF806408DF8075024
:1002B00026F01CFE30462A4640F2255128F050FD1B
:1002C0003046294628F072FC08B0BDE8F08100BF36
:1002D000000002400010014010B50446054880218E
:1002E00028F05CFD0028F9D021460248BDE8104006
:1002F00028F090BC0010014008B5074840F2255195
:1003000028F056FD012800D008BD034828F086FCDF
:10031000024B187008BD00BF0010014084AA0120E4
:100320002DE9F001059F84460020188038809CF854
:1003300000401D88002C50D00A2C4ED00AB1202C31
:1003400016D00E79D6B1CE788C7891F801804544DC
:100350003544ADB21D803E880130A64280B238BF20
:100360003C801CF8004038BF1D880CB10A2CE5D138
:100370004A78AD1A1D80BDE8F0017047DC2C22D010
:1003800008D9E42C27D00DD9F62C22D0FC2C07D18B
:1003900062240AE0C42C1AD0D62C16D0A72C10D078
:1003A000203C02E0DF2CFBD1662401EB4404E6880C
:1003B0000E4496F8DA8096F8D84096F8D96044440E
:1003C000C3E76724F1E76524EFE76424EDE76324DE
:1003D000EBE76124E9E76024E7E70020C8E700BF16
:1003E000094A002302E001331E2B09D052F8041FF2
:1003F0000029F8D10549012241F823001046704731
:1004000000221046704700BF84AA012088AA01205C
:10041000084A002302E001331E2B09D052F8041FC2
:100420008142F8D1044A002142F82310012070478C
:100430000020704784AA012088AA0120044B0021D3
:1004400003F1780243F8041F9342FBD1704700BFC9
:1004500084AA012003F01ABAF0B58BB0044625F047
:1004600031F9684625F092F9134BE20AC4F3451CB2
:1004700004F01F0E1B6804924FF4A071F02268462E
:100480004FF440340227FF260025CDF80CC0CDF8EC
:1004900008E00693089109928DE89000059607956B
:1004A00025F01EF925F07EF9022025F069FA0028D2
:1004B000FAD00BB0F0BD00BF04AB01204FF6FF70C7
:1004C000FFF7CABF2DE9F0410479A2B0002C6ED02D
:1004D000012C69D18B8804884588002B64D0CA8898
:1004E000002A61D00E88F718A7425DDC4F8807EB21
:1004F000020CAC4558DC0D892B44F02B54DC4B89A5
:100500001A44B2F5A07F4FDC554A80681268019109
:10051000C3EB031305EB031507FB046600EB86082A
:1005200002EB450625F0CEF802A825F02FF9019937
:1005300008968B88CA880A920025C3F1F00C4FF404
:10054000003E02A80227CDF824C0CDF808E00B93A6
:100550000397059504950695079525F0C1F80CA815
:1005600025F076F90199CDF830808B880E95E41A44
:100570000CA8119512950D9425F032F917A825F0C5
:10058000ADF9019917968B881997C3F1F00317A855
:1005900018931C951D9525F069F925F003F90220A3
:1005A00025F0EEF90028FAD022B0BDE8F0818B8862
:1005B00005884688002BF7D0CA88002AF4D00F8817
:1005C00007EB030CAC45EFDCB1F802C00CEB020802
:1005D000B045E9DC0E893344F02BE5DC4B891A4445
:1005E000B2F5A07FE0DC1E4A806812680191C3EB7F
:1005F00003130CFB057706EB031602EB460600EB34
:10060000470725F05FF80CA825F0C0F8019912966D
:100610008B88CA881593C3F1F00E0CA80226CDF87A
:100620004CE014920C940F940E94109411940D9627
:1006300025F056F817A825F00BF9019917978B8824
:100640001996ED1A17A818951C941D9425F0C8F852
:1006500025F0A8F8022025F093F90028FAD0A3E7A6
:1006600004AB012038B50B4C04F1780501E0AC4235
:100670000FD054F8041F0029F9D00B7D002BF6D0C1
:100680000B78002BF3D148680831FFF71BFFAC4211
:10069000EFD138BD84AA01202DE9F0430446ADF521
:1006A0000D7D884603A8214601222EF051FE054605
:1006B000002844D10DF1060102AB03A80222069FD7
:1006C0002EF0C2FF0646002842D1BDF806304DF696
:1006D000FF02934248D0A8F800300DF1060102ABAA
:1006E00003A802222EF0B0FFBDF80630A8F80230B1
:1006F0000DF1060102AB03A802222EF0A5FFBDF802
:10070000063088F804300DF1060102AB083F0222E2
:1007100003A82EF099FF384632F0BCFD044621466E
:100720003A4602AB03A82EF08FFF03A82FF03CF946
:100730000120C8F808400DF50D7DBDE8F083214685
:100740002F4833F04BF900200DF50D7DBDE8F08307
:1007500021462C4833F042F903A82FF025F928460A
:100760000DF50D7DBDE8F083314603A82FF02AF981
:1007700088F80460384632F08DFD814649463A4695
:1007800002AB03A82EF060FF03A82FF00DF909F1CA
:10079000FF341FB92EE09F422CD91E4614F8015F8A
:1007A000FF2D06F10103F6D16278C02AF3D14E4441
:1007B000F079337A7179B27943EA002342EA01226F
:1007C000A8F80030A8F8022002FB03F0400032F045
:1007D00061FD0022044621461346484601F0F2FE20
:1007E000484632F05FFD0120C8F808400DF50D7D48
:1007F000BDE8F083B8F80030B8F80220E4E700BFA5
:10080000A4ED030884ED030810B50446806832F0B7
:1008100049FD0023A36010BD2DE9F04F2DED028BA3
:1008200091B00B9010EE100A02920F9131F082FA03
:1008300041EC100B41EC180B2FF026FF0022604B0F
:1008400051EC100B31F0CAFA31F062FDB0EE480AFB
:10085000F0EE680A86B22FF06BFF0022584B51EC85
:10086000100B31F0BBFA31F053FD0B9F0F9D3F8809
:10087000DDF82CB02B88B5F902C0BBF902B009979E
:100880003DB299B203950AB20E91039FCDF820B004
:100890000BEBDB71C1F34F0B614602EBD2750A9291
:1008A00007EBD7740CEBDC720029CDF830C080B2B6
:1008B000C5F34F05C4F34F04C2F34F027BDD013B88
:1008C00012B20FFA86FC9FB2524203B203FB02F14E
:1008D0000D930CFB02F215FB00222BB20D98079230
:1008E000002601371FFA84FA03FB1C11354C0596CC
:1008F000BF001FFA8BFB0691C0F1000904960A9E07
:10090000002E40DD05980F9D0799069BD5F80880BD
:10091000CDF804B0820015E0002E2ADDDDF820B00D
:10092000B345099E15FB060023DDDDF82CB0DBF88E
:10093000085055F8200048F80200043297426344FA
:1009400049441ED084FB0350DD17C5EBA010504472
:1009500000B200280DDD84FB0165DDF804B0CE1780
:10096000C6EBA5155D44DDF80CB0ADB283452EB2E3
:10097000D2DC029D48F80250043297426344494455
:10098000E0D1DDF804B0049E059D0E990698731C15
:100990000A9E4FF0040235449BB211FB0277059585
:1009A000079A0D990C9D04931BB2084462449D4222
:1009B00006900792A3D111B0BDEC028BBDE8F08F79
:1009C00000408F40D34D62102DE9F04FD0F80480E5
:1009D00098F80430B8F80010B8F8024085B08146A5
:1009E000002B51D0012B4CD1042204FB01F302FB5C
:1009F00003F318460291039332F04CFC02998246AD
:100A0000002C43D0A500631E01F1FF3B9BB2A5F172
:100A1000040C1FFA8BFBD8F80800ACEB830C4FEAF0
:100A20008B0BD4440BF1040B0AEB050607464FEA87
:100A3000810E61B10BEB070432463B46019153F83E
:100A4000041B42F8041CA3422A44F8D10199043E35
:100A500066457744EDD1039A514632F0C7FE5046C1
:100A600032F020FCB8F80030B8F80220A8F80020D6
:100A7000A8F80230A9F80C20A9F80E3005B0BDE89E
:100A8000F08F044802F0C2FF0222AEE7D8F8080057
:100A9000E1E700BFBCED03080379028870B50D469D
:100AA00004464188E3B1012B17D10426A86801FB55
:100AB00002F206FB02F608B132F0F4FB304632F0E7
:100AC000E9FBA8603246A16832F090FE2188628876
:100AD00023792B7129806A8070BD024802F096FF4D
:100AE0000226E3E7BCED030838B50479058854B164
:100AF000012C05D105FB0211806840F8213038BD7A
:100B0000044802F083FF05FB0211806820F81130D1
:100B100038BD00BFBCED0308037910B55BB1012BF4
:100B200006D10488836804FB021153F8210010BD2C
:100B3000044802F06BFF0488836804FB021133F859
:100B4000110010BDBCED03082DE9F04F95B0DC2875
:100B5000884604921E9E00F0828151D9E42800F05C
:100B6000458140F27681F6285BD0FC2851D14FF0C8
:100B700082093279002A59D0B07803900399F0782D
:100B800000294BD0A9F12009002709FB0169BC46C7
:100B900009EB070292F8D85058B30022144680217E
:100BA000059705E0013294B284424FEA51011FD209
:100BB0002942F7D0B8F80060049F98F804A006FB1B
:100BC0000C7B5C44A4B2BAF1000F00F03A81BAF198
:100BD000010F40F0118106FB0344D8F808601F9F05
:100BE00046F82470013294B284424FEA5101DFD3B7
:100BF000059F0137039A1FFA87FC9445C8D30DE07F
:100C0000C42800F03281D62800F0F380A72800F035
:100C100029811F2898BF002000F2598115B0BDE836
:100C2000F08F32794FF08109002AA5D106EB4909EE
:100C300039F83A9CCDF80C904946314491F8D940A6
:100C400091F8D80091F8DA100C940991002C00F07A
:100C5000CB8003441F9F1F9C06969BB2C7F3C427FB
:100C600008931F9B10971F9F0592C3F345134FF0E6
:100C70000109C4F307444FF0030C1193C7F307278E
:100C800001EB09031294139764460E93C4464E4633
:100C9000099B002B00F0A0800E9FBFB2079765460E
:100CA0000127A4467B1E9BB2002E00F0A880069A66
:100CB000039C6244224492F8D84004F0F004F02CE3
:100CC0007FD0002C00F0A980B5F80080CDF82880F6
:100CD000049ADDF81480CDF808C04244DDF828807D
:100CE00008FB03239BB219462846089A0B93FFF78B
:100CF00013FF2B79DDF808C0002B00F0B980012B21
:100D00007AD11F99DDF84C90DDF848A0020E5FFA09
:100D100081F8C0F307410D910F92C0F30721C0B2D3
:100D200084F0FF0404FB08F8CDF80480DFF8A88104
:100D300004FB02FBA8FB0B8BDDF8348004FB0AFAF2
:100D400002FB08AADDF8048004FB09F902FB019903
:100D500002FB0082CBF3CF1B01920F9ADDF83480A7
:100D600001FB1B990199144408FB1BAA00FB1B18EB
:100D7000CBEB040B5FFA8BFB1FFA8AFA1FFA89F997
:100D80001FFA88F89AFBFBFA99FBFBF998FBFBF832
:100D9000002B00F08780012B13D1089B0A9C0B9835
:100DA0005FFA88F848EA0B685FFA8AFA04FB0302E4
:100DB00048EA0A485FFA89F9AB6848EA092143F82A
:100DC00022100137DDF81C80BFB2474586F00106CE
:100DD0007FF468AF6446AC46059B0C9F01330593D6
:100DE0009BB29F423FF654AF0C9817E74FF0800933
:100DF000BFE64FF08409BCE6364802F007FE0699CC
:100E0000DDF80C80614441440CF1010291F8D840B6
:100E10002401E4B21FFA82FC51E70498059C2A8859
:100E20002979204402FB03039BB291B30129E3D14A
:100E3000DDF82080A9681F9C02FB083341F823409D
:100E4000BFE706FB0344D8F808601F9F26F814701C
:100E5000A8E6DF287FF4DDAE4FF0860989E64FF083
:100E6000850986E64FF0870983E64FF0830980E61F
:100E70001F99DDF84490DDF840A0FF2201F01F0823
:100E8000C0F3C4210D910F92C0F3451100F01F0073
:100E900046E7DDF82080A9681F9C02FB083321F893
:100EA00013408EE7089B0A9C0B98C9F385094FEA0B
:100EB0004919CAF3C40A04FB030249EACA2AC8F35F
:100EC000C408AB684AEA080823F8128079E781462B
:100ED0004FE600BFBCED030881808080F0B5147937
:100EE00083B0089D7CB1D7789C881E895B8900926D
:100EF000E41B04EBD47406EB6402019592B2FFF795
:100F000023FE03B0F0BDDC2822D008D9E4281DD090
:100F10000ED9F6281ED0FC2807D162240BE0C42885
:100F20001AD0D62810D0A7280CD0A0F1200402E0B7
:100F3000DF28FAD1662402EB4404E488144494F8D0
:100F4000D970D1E76724F6E76424F4E76024F2E778
:100F50006524F0E76124EEE76324ECE72DE9F04F28
:100F600085B081460078BDF83870BDF83CA00C46CD
:100F70001099039190469B4600284AD01D460026B2
:100F80002CE0E278A378B8F800102A448A4204DC06
:100F9000BAF1000F07D0524505DD2178A2780A4446
:100FA0001744BFB25D460A2827D00D2811D0B8F8E3
:100FB00002203B44934253DC039B01932A463B4669
:100FC00000944146FFF7C0FD63781D4410FA85F098
:100FD00085B20136B6B219F80600D0B12379002BDC
:100FE000CFD1DC283AD017D9E42835D01DD9F6283E
:100FF00030D0FC2816D162231AE001362278A3787B
:10100000B6B2134419F806001F44BFB25D4600286B
:10101000E4D105B0BDE8F08FC42819D0D62815D08A
:10102000A72811D0A0F1200302E0DF28FAD166231F
:1010300004EB4303DA88224492F8DA1092F8D830AD
:1010400092F8D9200B449EE76723F1E76423EFE78A
:101050006323EDE76123EBE76023E9E76523E7E737
:101060000348494605B0BDE8F04F32F0B7BC00BFB9
:10107000D4ED03082DE9F04F89B017460290BDF872
:101080004C200078BDF84860DDF8509004938B4602
:1010900005921C464FF0000A90B10A2813D19BF824
:1010A00000209BF80230049C13440AF1010A1E44FC
:1010B0001FFA8AFA029B13F80A00B6B20028ECD194
:1010C00009B0BDE8F08FDDF808800DF11E02D044B4
:1010D000009207AB012240465946FFF721F9BDF8BF
:1010E0001C303A8803902344934203DC059A4AB1AA
:1010F000934207DD9BF800209BF80230049C1344C8
:101100001E44B6B2BDF81E307A88334493423EDCAA
:10111000039BE3B1039A531E029A0AF1FF3518FAB2
:1011200083F8334615445E469B4615F8010F224668
:101130005B468DE840023946FFF706FD7378184498
:1011400004444545A4B2F0D15B46B3461E46039B1A
:10115000029A9A441FFA8AFA12F80A0020289BD1B0
:1011600022463346CDF800B0CDF804903946FFF75B
:10117000EBFC9BF801300AF1010A1C441FFA8AFAC1
:10118000029B10FA84F084B213F80A0084E70299F3
:10119000024832F023FC09B0BDE8F08FD4ED03081B
:1011A0002DE9F04186B014460DF116021E4600925C
:1011B00005AB002280460F460C9DFFF7B1F8228850
:1011C000BDF814300096D31A002603EBD3730295B2
:1011D000404639462246C3F34F030196FFF74AFFC4
:1011E00006B0BDE8F08100BF2DE9F04F05888FB053
:1011F0000446C818A842BDF8606003DC60889719EF
:10120000874202DD0FB0BDE8F08F207900283FD083
:10121000012848D119984FF00408C0F3074BC0F3D8
:10122000072A5FFA80F9070EA068039002910192E5
:10123000009324F047FA04A824F0A8FA2079029930
:10124000019A009B4FF4403ECDF810E070B30128A6
:1012500029D1002002FB0512248803990590E41A85
:1012600008FB021204A80A920D930B94CDF820B04B
:10127000CDF81CA0CDF8189009970C9624F030FA00
:1012800024F090FA022024F07BFB0028FAD0B9E782
:1012900019984FF00208C0F3C42BC0F3451A00F0B0
:1012A0001F09FF27C0E7024802F0B0FB0220D1E788
:1012B000BCED03082DE9F047BDF82040DDF824C05F
:1012C000A24202D9154622462C46994202D90D4621
:1012D00019462B465D1AADB2002D42D0A71ABFB2F7
:1012E00097B30679B0F80080002E6BD0012E35D16F
:1012F00008FB021AD0F8089049F82AC0BD423DD335
:101300006C083C44A4B2A54203D8641B0132A4B2C9
:1013100092B2013189B296B1012E1FD108FB021899
:1013200049F828C0994227D03C44A4B2A542B0F85D
:1013300000800679E9D9013189B2002EECD108FB91
:10134000021829F818C0EDE76B1C0124CDF824C061
:1013500008949BB2BDE8F047FFF746BF1E4802F075
:1013600055FB0134A41AA4B20894CDF824C001237B
:10137000BDE8F047FFF738BFBDE8F0877B082B4496
:101380009BB29F4203D8DB1B01319BB289B2013271
:1013900092B296B1012EE1D108FB021849F828C09B
:1013A000A242E9D02B449BB29F42B0F8008006795C
:1013B000E9D9013292B2002EECD108FB021829F8CB
:1013C00018C0EDE708FB0218D0F8089029F818C0FB
:1013D000B0F80080067991E7BCED03082DE9F04FE5
:1013E0000446908825880E88A7B008B1D78817B919
:1013F00027B0BDE8F08FB2F800A00AEB0003AB42C3
:10140000F6DCB2F802B063880BEB070C9C45EFDC0E
:10141000B2F808804044B042EADCB2F80A9048884A
:101420004F448742E4DC207900287FD001287AD11C
:1014300004270879A3680393002879D0012872D182
:10144000042305938B6804930291019224F03AF9E6
:1014500006A824F09BF90299019A08794FF4003309
:101460000693002869D001285DD10020B2F804E07D
:10147000DDF814C007900498CDF83CE009FB068322
:101480000CFB03084FF00009D3880E93CEEB060C3B
:1014900006A802910192CDF834C0CDF83080CDF885
:1014A0002490CDF82090CDF82890CDF82C9024F001
:1014B00017F910A824F0CCF9019A23799088039C9D
:1014C00002990BFB05AA07FB0A472D1A10971195E5
:1014D000002B34D0012B26D14B4610A800241293A8
:1014E000029101921594169424F07AF91BA824F025
:1014F000F5F9019A029992880B79CDF86C80B61AA9
:101500001C96F3B1012B0ED100231BA8209321932D
:101510001D9424F0ABF924F045F9022024F030FAB0
:101520000028FAD064E7084802F070FA022780E742
:101530004FF0020CCDF814C084E7022096E7022396
:10154000CBE70224E0E700BFBCED030800B583B0A1
:10155000428801910021009203880A46FFF744FE69
:1015600003B05DF804FB00BF70B5044682B0218073
:1015700062800D4616460371BBB1012B12D10420C7
:1015800006FB05F300FB03F031F084FE069AA06031
:1015900000210192009620462B460A46FFF724FEC2
:1015A00002B070BD024802F031FA0220E8E700BF45
:1015B000BCED03080B8810B401224C888381002302
:1015C000C4814160027503824382038143810370B9
:1015D0005DF8044B704700BF0B884A888380002366
:1015E000C280038143810380438070472DE9F0412D
:1015F0004FF4000086B0012125F0A8FE012001462D
:101600002D4DDFF8C0802D4E25F07CFE04200121F9
:1016100025F078FE28460821042224F09BFF06AC22
:1016200004224046092124F095FF4FF480730127DE
:1016300044F8183D28460223002569468DF80430F9
:101640008DF805308DF806708DF8075024F0E4FE13
:101650004FF4007369464046009324F0DDFE39469E
:101660004FF4000025F0AEFE29464FF4000025F0AF
:10167000A9FE06AC304624F081FF114B44F8103D22
:101680004FF480624FF48043394630464BF6FF7783
:10169000ADF81220ADF81430ADF80C50ADF8105084
:1016A000ADF80E7025F022F83046214624F09CFF5C
:1016B00006B0BDE8F08100BF00000240005C0040C1
:1016C000A08601000008024010B50A4C0121204606
:1016D00025F040F82046012125F088F82046002119
:1016E00025F084F8FFF782FF0348BDE8104032F090
:1016F000C5B900BF005C00404CEE0308F8B50646D3
:101700000F465A485A4C012125F016F801E0013CD9
:1017100078D05648574925F03FF90028F7D053486C
:10172000534C002125F02EF850483146002225F078
:101730001FF801E0013C6ED04C4D4F49284625F082
:101740002BF90028F6D02B8B494C01E0013C6BD0E3
:1017500046484A4925F020F90028F7D03946434841
:10176000434C25F09DF801E0013C42D03F484349FD
:1017700025F012F90028F7D03C48414925F00CF932
:101780000028F1D039483A4C012124F0D5FF01E07E
:10179000013C52D03548374925F0FEF80028F7D0F3
:1017A00031463248324C012224F0E2FF01E0013C94
:1017B0004BD02E4D3049284625F0EEF80028F6D0C3
:1017C0002B8B2B4C01E0013C47D028482D4925F0BC
:1017D000E3F80028F7D00121244824F0BBFF234878
:1017E00025F060F801210446204824F0CBFF204674
:1017F000F8BD254A2548032132F0F0F8FFF764FFD1
:101800002046F8BD204A2148214632F0E7F8FFF78C
:101810005BFF2046F8BD1C4A1C48012132F0DEF86F
:10182000FFF752FF2046F8BD174A1848022132F050
:10183000D5F8FFF749FF2046F8BD134A13480421A5
:1018400032F0CCF8FFF740FFDAE70F4A0F480521E6
:1018500032F0C4F8FFF738FFD2E70B4A0B480621F5
:1018600032F0BCF8FFF730FFCAE700BF005C004071
:1018700001000300010000100200001080000010B1
:1018800004000010400000100CEE030858EE03089E
:10189000F8B505460E463F483F4C0121174624F057
:1018A0004BFF01E0013C51D03A483C4925F074F827
:1018B0000028F7D029463748374C002224F058FF3B
:1018C00001E0013C4BD0334D3549284625F064F802
:1018D0000028F6D02B8B304C01E0013C48D02D483D
:1018E000304925F059F80028F7D0314629482A4CCC
:1018F00024F0D6FF01E0013C43D02648294925F0D9
:101900004BF80028F7D039462248234C24F0C8FF72
:1019100001E0013C11D01F48224925F03DF8002884
:10192000F7D01C48204925F037F80028F1D0194895
:10193000012124F00FFF0120F8BD1C4A1C4804219E
:1019400032F04CF8FFF7C0FE2046F8BD174A1848A1
:10195000214632F043F8FFF7B7FE2046F8BD134AA0
:101960001348012132F03AF8FFF7AEFE2046F8BDE9
:101970000E4A0F48022132F031F8FFF7A5FE20464B
:10198000F8BD0A4A0A48032132F028F8FFF79CFE06
:101990002046F8BD005C004001000300010000107B
:1019A0000200001080000010040000101CEE03086C
:1019B00058EE03082DE9F047984681460C469246BA
:1019C000002B00F08B807248724D012124F0B4FE90
:1019D00002E0013D00F09F806D486F4924F0DCFF7C
:1019E0000028F6D0B8F1010F0CBF00210121684892
:1019F000684F24F0C7FE66484946002224F0B8FE2E
:101A000002E0013F00F09B80614E6449304624F0C3
:101A1000C3FF0028F5D0338B5E4D02E0013D00F09E
:101A200098805B485E4924F0B7FF0028F6D0214635
:101A30005748584C24F034FF01E0013C61D0544831
:101A4000574924F0A9FF0028F7D05148554924F000
:101A5000A3FF0028F1D04E484E4D012124F06CFE2A
:101A600001E0013D7FD04A484B4924F095FF002812
:101A7000F7D049464648474C012224F079FE01E060
:101A8000013C7AD0424D4549284624F085FF002884
:101A9000F6D02B8B08F1FF355AFA85F50AF1FF34A1
:101AA000CAF1020A0AEB0403984521DD394E01E030
:101AB000013E3AD036483C4924F06EFF0028F7D06A
:101AC000334824F0EFFE04F8010FAC42EAD130486D
:101AD000012124F057FE0120BDE8F087334A344845
:101AE000194631F07BFFFFF7EFFD4046BDE8F08778
:101AF0002748002124F046FE2548012124F02AFE33
:101B0000D4E72A4A2A48042131F068FFFFF7DCFDB8
:101B10002046BDE8F087254A2548012131F05EFFC7
:101B2000FFF7D2FD2846BDE8F087204A204807216C
:101B300031F054FFFFF7C8FD3046BDE8F0871B4A7F
:101B40001B48022131F04AFFFFF7BEFD3846BDE8D1
:101B5000F087164A1648032131F040FFFFF7B4FD25
:101B60002846BDE8F087114A1148052131F036FFBB
:101B7000FFF7AAFD2846BDE8F0870C4A0C4806216D
:101B800031F02CFFFFF7A0FD2046BDE8F08700BF35
:101B9000005C004001000300010000100200001082
:101BA0008000001004000010400000102CEE03081C
:101BB00058EE03082DE9F047984604468A469146B8
:101BC000002B5AD04B484C4D012124F0B5FD01E0CB
:101BD000013D66D04748494924F0DEFE0028F7D091
:101BE00021464448444E002224F0C2FD01E0013E5B
:101BF00061D0404C4249204624F0CEFE0028F6D069
:101C0000238B3D4F01E0013F5FD03A483D4924F02E
:101C1000C3FE0028F7D051463648374C24F040FE2A
:101C200001E0013C5BD03348364924F0B5FE002882
:101C3000F7D008F1FF3659FA86F609F1FF352D483D
:101C400015F8011F2C4C24F02BFE01E0013C1ED0A6
:101C500028482C4924F0A0FE0028F7D025482A491E
:101C600024F09AFE0028F1D0B542E8D121480121A4
:101C700024F070FD0120BDE8F087244A244819466D
:101C800031F0ACFEFFF720FD4046BDE8F0871F4A6B
:101C90001F48052131F0A2FEFFF716FD2046BDE8E2
:101CA000F0871A4A1A48012131F098FEFFF70CFD1F
:101CB0002846BDE8F087154A1548022131F08EFE0E
:101CC000FFF702FD3046BDE8F087104A10480321B7
:101CD00031F084FEFFF7F8FC3846BDE8F0870B4A88
:101CE0000B48042131F07AFEFFF7EEFC2046BDE8F8
:101CF000F08700BF005C00400100030001000010FD
:101D00000200001080000010040000103CEE0308E8
:101D100058EE03082DE9F00F012884B007D00228FF
:101D20005DD0002852D004B0BDE8F00F7047344EAB
:101D3000344FB6F924B0B6F81490F38A06EBCB1BF7
:101D40000BF5865B0BF1140B1BB2002B0293EADD43
:101D500009F1FF339BB20133DB01002203930FFA39
:101D600089F90192B9F1000F25DD019B0BF17E0885
:101D70004FEAC30A00255446A8F1800C62460023AE
:101D8000B6F9101032F8020F04FB015103EBC10148
:101D90000133082B27F81100F2D10CF1100CC445C7
:101DA00004F10104EAD101352BB299450CF1800808
:101DB000E1DC039B9B44019A013213B20192029A27
:101DC0009A42CFDC04B0BDE8F00F70470C4EDFF84C
:101DD0003CB0B6F81090738A0BF28A57B4E7084EFD
:101DE000094FB6F924B0B6F92620B6F81890738BCF
:101DF000934406EBCB1B0BF5865B0BF1140BA3E7AF
:101E0000C8F30020260C0120260E01209C0401208E
:101E10002DE9F0077E4EB6F8CC3B1AB2002A5CDD05
:101E2000013B9BB27B49B6F8CE2BC95CA6F8CC3BF4
:101E30001140D2B21A41A6F8CE1B96F8BD81744D5E
:101E4000744F06EB481303F5137300204FF0070C93
:101E500014E0B5F8CE4B17F801A0A5F8CC1B5FFA3B
:101E600084F901300AEA040449FA01F11028A5F8BE
:101E7000CE4B01EB420203F102032AD0B3F8001962
:101E80008A4206DBB3F900401CB1B3F88048A24295
:101E900036DDB6F8CC4B611E24B2002C89B2D8DCFA
:101EA0002C6B611C29632178A6F8CCCBFF2908BFD5
:101EB000023400F1010008BF2C6301F07F041028F8
:101EC0004FEAD111A6F8CE4B01EB420203F1020317
:101ED000D4D10320BDE8F0077047336B5A1C32633E
:101EE0001A78FF2A08BF02334FF0070108BF336397
:101EF00002F07F03A6F8CC1BA6F8CE3BCA409CE7B5
:101F000000EB081306EB4303521AB3F8CC31404CF4
:101F100013444FEA082818FA83F306EB430393F8B7
:101F2000CC321A0913F00F00A6F8D02B46D0B4F823
:101F3000CC3B1AB2824244DAC31A5FFA83FCBCF18A
:101F4000080FB4F8CE5B60D9216B0827644600E027
:101F500011464A1C32630B78A6F8CE3B083CFF2B97
:101F6000E4B203EB052508BF8A1C082CADB2A6F825
:101F7000CC7BEDD8ACF10903C3F3C403ACF1080C7E
:101F8000ACEBC30C0CF0FF0C531C33631178204BEB
:101F9000FF2904BF02321A63CCF108039BB21D4A29
:101FA000A6F8CC3BD25C05FA0CF541FA03F313FA20
:101FB00085F311409BB2A6F8CE1B12E0A4F8D20B19
:101FC00088E71B1A99B20BB2124DB4F8CE2BED5C18
:101FD000A4F8CC1BD1B241FA03F32A40A4F8CE2BCB
:101FE0009BB2421E43FA02F212F0FF0209D14FF6F1
:101FF000FF7101FA00F0434001331046A6F8D23BCE
:1020000068E7A6F8D23B002064E7226BBCE700BF7C
:10201000C8F300206CEE03082DE9F00FD2B00128C0
:10202000069009D0022800F05B82002800F04D8263
:1020300052B0BDE8F00F7047914D0795B5F92420D7
:10204000AE8AEB8A0D96920105EB420101F58651AD
:1020500005EB4202143102F6D43209910E921BB202
:10206000002B1093E4DDDDF8349009F1FF339BB2CF
:1020700001334FF0000ADB010FFA89F1CDF830A0EF
:102080000A93CDF83CA01191119F002F40F30B82D1
:10209000DDF83890DDF830A04FF00008D144CDF8DD
:1020A0001480CDF82C900CE0022B00F0F581002B71
:1020B00000F0EA8105980A9980308842059000F086
:1020C000F281069B0B9D059A012B1544ECD1DDF89E
:1020D0001C904FF0000AD9F8C461CDF820A06948DF
:1020E00012AC0023C25E35F8121036F8122011FB34
:1020F00002F2E2500433202BF4D1634920308842AD
:1021000004F12004EDD112AD4FF000083EE012A919
:10211000203551F80830DB028033F918DF1B01EB62
:102120000A0407EB0B06CAEB010A02EB0A03CBEB2E
:10213000070BC2EB0A02071906EB090AC9EB0606F0
:102140000DF148093F1249F808700BEB0C01201AF9
:10215000CCEB0B0B08F120081C12001212124FEAF4
:102160002A2C361209124FEA2B23B8F5807F45F846
:10217000040C45F8144C45F8102C45F81CCC45F8D7
:10218000086C45F8181C45F80C3C74D06B68EE6977
:10219000EC686A69A868D5F818A09919224440F239
:1021A000352740F66819AC6907FB01F109FB02F21B
:1021B00040F6E407DFF8DC9040EA040B07FB031469
:1021C0006F6909FB061109F62F2909FB0720EF6843
:1021D0006FF47B6909FB0722AF68C2EB010C4BEA85
:1021E000030B231A4BEA060B03EB0C09B526BA4482
:1021F000CCEB030C6F6906FB09F906FB0CFCEE68DF
:102200004BEA0703334304932B69AE6940F254470A
:1022100007FB0AFADF021D4B03FB06ABAE684FF467
:10222000C46303FB06AA049E09F180090CF1800C2B
:102230003E4320440A444FEA29294FEA2C2C7FF4DC
:1022400066AF12AF203557F80830DB0045F8043C84
:1022500045F8083C45F80C3C45F8103C45F8143C62
:1022600045F8183C45F81C3C47F8083008F12008B0
:10227000B8F5807F8AD10648006804900022B5E056
:10228000C8F3002078EE030878EF030838F1FFFF69
:1022900034200120B2F2FFFF08EB060A05EB070924
:1022A00040F2352C40F668140CFB0AFA04FB09F9DD
:1022B000984CDDF808B00AF1040A40F6E40C0CFB77
:1022C00008A804FB06A6DFF85CA209F104096FF474
:1022D0007B640AFB059C04FB07950DF148098344C8
:1022E00059F8027040F254443F0204FB0BFB019783
:1022F000894C029F0BF1040B04FB07B74FEAE80877
:10230000F6104FEAEC0CED10CCEB080AC5EB060911
:1023100002974FF4C46707FB00B0019C0AEB090B5E
:10232000C9EB0A094FF0B50A0AFB0BFB0AFB09FAD5
:10233000DDF8089004F50057C4444FEAE904C1EB06
:102340000708C0100F440BF1800B0AF1800A08EB5C
:1023500004014FEA2B2BC4EB08044FEA2A2A07EBAF
:1023600000083544381A0CEB080601EB0B07CBEBE1
:10237000010B04EB0A01CCEB080CB6134FEAA138B1
:10238000049905EB00094FEAAC3C401B51F826606C
:102390000396CAEB040A4FEAA939049C51F82C6051
:1023A00051F828C054F8295080130DF1480854F80A
:1023B0002000039C48F80240BF134FEAAB3B4FEAB2
:1023C000AA3A043251F8277051F82BB051F82A106C
:1023D0001F62202AC3F8C0B0C3F8E060C3F840C051
:1023E000C3F8A0101D66C3F8800034D012AB1344AC
:1023F000D3F8C0100291186C029CD3F82080D3F857
:10240000E060D3F8A0501F6ED3F8801040EA040CAF
:102410004CEA080C4CEA060C4CEA050C4CEA070C9A
:1024200009025CEA010C7FF437AF12AD049EA95893
:102430002031891156F82110C3F8E010C3F8C010FC
:10244000C3F8A010C3F88010196619641962A95066
:102450000432202ACAD1099BDDF83090DDF814C07F
:10246000089E4B44023B51AD634411AC03F1100094
:10247000224652F8041F314423F8021F8342F8D148
:102480002034AC42F2D115E6079C4FF08008D4F816
:10249000C061CDF8208022E6DDF81CC00020DCF809
:1024A000C86108901BE60F9A0C9D0D9C109E01328E
:1024B00013B20F92802214FB02559E420C953FF7F7
:1024C000E3AD52B0BDE8F00F704714481449028ADA
:1024D000079000F6D43409910D92438A0E94BEE51C
:1024E0000E4F0797B7F92410B7F92620B7F81880D0
:1024F000CDF834800A44920107EB420101F5865180
:1025000007EB4202143102F6D4327B8B09910E9212
:10251000A5E500BFB2F2FFFF38F1FFFFC8F30020CE
:102520009C040120E1FCFFFFF8B5254D0C4685F821
:10253000BD01FFF76DFC002841D141F2D453B5F83D
:10254000D22BEA5285F8BD41074601242E46FFF7FB
:102550005FFC002833D1D5F8D01B19B3B6F8D03BB7
:102560001AB2002A0FDDE01801B200E0A4B222B2D4
:10257000013402F6E822A4B205EB420223B29942EA
:102580009780F3D184B223B203F6E82305EB43032B
:102590000134A4B2B5F8D22B9A8023B23F2BD6DDFA
:1025A0000020F8BD23B2013403F6E823A4B205EB02
:1025B000430223B23F2B9180F5DD0020F8BDF8BD2A
:1025C000C8F300202DE9F04FDFF8849389B004466A
:1025D000029115461E464846002142F6704231F0EF
:1025E0009FF989E8600004F1020B4FF0000AC9F876
:1025F0002C40C9F830B09BF801200BF10205A2F184
:10260000C003C9F83050202B22D8DFE813F0AB010B
:10261000210021002100D8002100210021002100FB
:1026200021002100210021002100210021002100A2
:102630002100210021002100210021002100210092
:10264000D10080004400210031002100210026003B
:1026500002F0F002D02A00F0C9849BF802209BF817
:10266000033043EA022305FA83FBC9F830B0C2E71E
:102670009BF802409BF803009BF804109BF8052090
:10268000B24B40EA042005FA80FB42EA0122C9F875
:1026900030B01A80AFE79BF803309BF802409BF8FC
:1026A000042043EA042424B202F00F0209EBC21210
:1026B0004F2C0BF1050302F132020BF145000ADC4D
:1026C00013F8011B22F8021F8342F9D105EB040B1A
:1026D000C9F830B08FE713F8011B22F8021F8342BC
:1026E000F9D19BF8452002F00F0209EBC2123232F9
:1026F0000BF146030BF1860013F8011B22F8021FB1
:102700008342F9D105EB040BC9F830B073E79BF8AD
:102710000420B9F9B4019BF802409BF803108C4BDC
:102720008242A84641EA042142D100280BF1050B60
:102730002BDD93F8B64100230EE089F8BB219BF80E
:10274000012002F00F020232013389F8BC211AB2D3
:1027500090420BF1020B16DD9BF80020A2429BF881
:1027600001204FEA1212E8D189F8B9219BF8012023
:1027700002F00F020232013389F8BA211AB29042F4
:102780000BF1020BE8DCD9F83080B9F81000704A80
:1027900008FA81F1C9F8301018B1518A002940F0C7
:1027A00020826C4831F06AF9002009B0BDE8F08F52
:1027B000694831F063F9002009B0BDE8F08F9BF85B
:1027C00002209BF8033043EA02231BB2CF2B039372
:1027D00040F35E811BF8043FC9F830B0FF2B3FF493
:1027E0000AAF5E4804904FEA131803F00F0303EB9F
:1027F00048084FEA481C09EB0C0404F24A2420461E
:102800005B460BF11005002113F8012F20F8022F71
:102810000A4492B2AB4291B2F6D11132049F92B205
:1028200003920BF11103674400254FEA082E34F898
:10283000022FBAB111B2002940F31F8496B2701E64
:1028400080B20EFA85F2013009EB4202184402F21E
:10285000CA2213F8011B22F8021F8342F9D1354422
:10286000ADB20346BC42E2D109EB0C034FEA0818B3
:10287000B3F84C02002840F06F84034601339BB24A
:1028800019B208EB010209EB4202B2F84C42002CEB
:10289000F4D0002940F39D849DB22D4B304E6A1E2A
:1028A00018FA82F2634406EB420203F64A3323F835
:1028B00002AF934223F880ACF9D141446A1C01F283
:1028C000A45392B209EB430509EB410113B2013C59
:1028D0004FF000070F2BA1F8CC4AAF8016DC13B2E3
:1028E000434409EB43010C46B1F8CA1AB4F84C5200
:1028F00001310132490092B289B2013D13B20D4457
:10290000102BA4F84C1BA4F8CC5AE9D109EB0C020B
:102910000023A2F8CCA102F5E67102F513741A4661
:1029200002E034F8020F02310244023392B21E2B4D
:102930004A80F6D103980BFA80FBC9F830B09BF8B7
:102940000030FF2B7FF44FAF55E600BF3010012061
:10295000C8F3002078EF030888EF030832F6002060
:1029600014FF00209BF805009BF806309BF802102E
:102970009BF8032043EA0023C9F80C309BF80700BA
:102980009BF8083043EA0023C9F808309BF8093067
:10299000A9F8B4311BB2012B42EA012244D0032B27
:1029A0007FF406AFCB499BF80A3081F8B6319BF82B
:1029B0000B301B090B829BF80B3003F00F034B828B
:1029C0009BF80C3001EBC3133433C1F8C0319BF8D2
:1029D0000D3081F8B7319BF80E301B098B829BF8C4
:1029E0000E3003F00F03CB829BF80F3001EBC313C3
:1029F0003433C1F8C4319BF8103081F8B8319BF8FA
:102A000011301B090B839BF8113003F00F034B832C
:102A10009BF8123001EBC313343305FA82FBC1F883
:102A2000C831C9F830B0E6E5AA4C9BF80A1084F822
:102A3000B6119BF80B10090921829BF80B1001F0CD
:102A40000F0161829BF80C1004EBC1113431C4F802
:102A5000C0119BF80A1084F8B711A382E3829BF897
:102A60000C1004EBC1113431C4F8C4119BF80A10E6
:102A700084F8B811238363839BF80C3004EBC313F1
:102A8000343305FA82FBC4F8C831C9F830B0B2E576
:102A90009BF804304FEA131C03F00F0303EB4C0CBC
:102AA0004FEA4C1E09EB0E0404F24A2421460BF1B6
:102AB00005020BF1150312F8010B21F8020F9A42DF
:102AC000F9D1854EB046F04400264FEA0C2B34F87D
:102AD000022FBAB111B2002940F34F8397B2781E8A
:102AE00080B20BFA86F2013009EB4202184402F27E
:102AF000CA2213F8011B22F8021F8342F9D13E4477
:102B0000B6B203464445E2D109EB0E034FEA0C1C72
:102B1000B3F84C02002840F05883034601339BB2BF
:102B200019B20CEB010209EB4202B2F84C42002C44
:102B3000F4D0002940F33A839EB2664B674F721E71
:102B40001CFA82F2734407EB420203F64A3323F87D
:102B500002AF934223F880ACF9D16144721C01F2B8
:102B6000A45392B209EB430609EB410113B2013CB5
:102B70004FF0000B0F2BA1F8CC4AA6F804B016DCDE
:102B800013B2634409EB43010C46B1F8CA1AB4F816
:102B90004C6201310132490092B289B2013E13B256
:102BA0000E44102BA4F84C1BA4F8CC6AE9D109EB15
:102BB0000E020023A2F8CCA102F5E67102F513740F
:102BC0001A4602E034F8020F02310244023392B294
:102BD0001E2B4A80F6D1DDF80CB0AB44C9F830B0FA
:102BE00009E5B2F814E0148BD78A558BDFF800A101
:102BF00042F66C4806B20FFA8EFC42F808A00FFAB3
:102C000084F896FBFCFC01FB00F007FB0EFE09B20A
:102C100096FBF8F63FB20FFA85F891FBF7F7AAF2A8
:102C2000044391FBF8F105FB04F45184A2F81CC0A5
:102C300090841684D783A2F826E014856FF0FF01F4
:102C4000A3F5806242F8041F9A42FBD1244A6FF038
:102C5000FF0342F8043F0133B3F5807FF9D1214BE4
:102C60004FF4007103F5806243F8041F9342FBD1D7
:102C7000DFF880A0174B9AF80020012A00F0338279
:102C8000B9F9B431134E012B00F04182032B40F00F
:102C9000F881328A738A12FB03F3002B40F383829C
:102CA000114D06F6D436A5F18004002799F8B90134
:102CB00099F8BA11FFF738FC002840F0E281238828
:102CC0002A880A491A4492B222802A8006F180009A
:102CD000334613E0C8F3002032F6002014FF002032
:102CE00030140120301C01201C0A01209C09012005
:102CF00034180120220A012031F8022F23F8022B78
:102D00008342F9D10137B9F81000B9F81220BFB2E7
:102D100039B210FB02F291421E46C7DBB9F814200B
:102D2000B9F8163012FB03F3002B2EDD002499F8BE
:102D3000BB0199F8BC11FFF7F7FB002840F0A18117
:102D4000DFF870B33BF8823CBBF800201A44ABF1CB
:102D5000820092B201462BF8822CABF8002006F1DB
:102D60008000334601E031F8022F23F8022B834222
:102D7000F9D10134B9F81400B9F81620A4B221B27F
:102D800010FB02F291421E46D1DBB9F81820B9F8C7
:102D90001A3012FB03F3002B2BDD002499F8BB0142
:102DA00099F8BC11FFF7C0FB002840F06A81BA49CE
:102DB00031F8843C0A88A1F184071A4492B239465A
:102DC0003A80A7F8842006F18000334601E031F80C
:102DD000022F23F8022B8342F9D10134B9F81800ED
:102DE000B9F81A20A4B221B210FB02F291421E4699
:102DF000D4DBAA490A88B1F80C36013292B20A80B3
:102E0000002B00F0458112B21BB292FBF3F103FBE1
:102E10001123002B40F03C81A14901230B700020BD
:102E2000FFF7FAF80120FFF7F7F80220FFF7F4F8B0
:102E30000020FEF76FFF0120FEF76CFF0220FEF777
:102E400069FFB9F91210974BC900002940F3A1811D
:102E500003F5E357D8683A680397904240F29081AF
:102E60009149D3F808A0D1F800B0B3F910C0069189
:102E70004FF00008CDF81080CDF81C80584655461C
:102E8000BCF1000F644640F3C080854240F2BD8033
:102E900000234FEAC80719461A4605974BE0002E53
:102EA000C0F2E9804FEADA06B60134F0FF0A05D035
:102EB000FF2C00F3A480002CC0F2D880BF0833F0B0
:102EC000FF0B05D0FF2B00F39780002BC0F2D080C2
:102ED0004FEADC0CDDF80CA0D9F80440DAF8003039
:102EE000DDF810B01C44D9F800305C4404FB053315
:102EF0000344029C19443E4304EB41034CEA461C44
:102F000004F811C04FEA2C2C83F801C00132B9F942
:102F100010C092B213B2B3EBCC0F644671DADDF895
:102F200018A0DFF880B1DAF80000DBF808501E18AE
:102F3000AE42194669D2B9F91EB0B9F92040B9F9C3
:102F40001CA0019498FBFBFB059CB9F922604FEA99
:102F5000CB0B93FBFAFA04FB0C370BFB0CAADDF846
:102F600004B098FBF6F607F62C3793FBFBF3F6005C
:102F70000AF62C4A09EB470706FB0C3609EB4A0A0E
:102F8000B7F90670BAF806B006F62C5609EB4606F5
:102F90004FEA072A4FF01203F7881BFB03A64FF6F0
:102FA00061731BFB03A440F29B131BFB03AA40F2BB
:102FB0006F1B17FB0B664FF624734FF6E37B17FB73
:102FC0000BAA17FB034436124FEA2A23241236F0C9
:102FD000FF0B5FFA86FAE7B25FFA83FC3FF462AF59
:102FE000FF2E7FF75CAF4FF4F8665EE70BF1040B42
:102FF000C9F830B0FFF7FFBA4FF01F0C6AE73F2760
:103000005DE7069E274F3068BD68DDF81CA0B9F962
:1030100012100AF101039BB20FFA83F8C900884528
:10302000079309DA039B1F4E1A68F368CDF81080E6
:1030300042449A42FFF424AF8346AA460BEBC404F1
:10304000544539D2DDF818B0CBF80040002C7FF49D
:103050000FAE16480390039FD9F80C303A689A4295
:10306000FFF406AE012009B0BDE8F08F002726E787
:103070004FF0000C2EE7002617E718460026FFF752
:10308000EEBB0B4830F0FAFC002009B0BDE8F08F31
:10309000034A00231370C2E6200A0120240A0120FB
:1030A000220A0120C8F300202C1001202810012042
:1030B00098EF03081E0A0120474A03921368464C02
:1030C000069E039F0B44002223603260D9F80C3027
:1030D0003A689A42C6D2DFF810A1404B9AF8002015
:1030E000012A7FF4CDAD1A6B3C4E951C00221D6366
:1030F000A3F8CC2BA3F8CE2BB9F9B4312AF8062CBF
:10310000012B2AF8042C2AF8022C7FF4BFAD96F884
:10311000B90196F8BA11FFF707FA0028B1D1304B80
:10312000188833F8801C014489B223F8801C198068
:1031300006F6D43206F6544301E0B2F8001A22F83B
:10314000021B9A42F9D1134602F58071002223F83E
:10315000022B8B42FBD14CE6044601220021414464
:1031600001F2A45309EB430309EB4101013CA1F82F
:10317000CC4AA3F804A0FFF7B2BB18460027BEE470
:10318000381D0690B3F91040D7F804B0D3F808A062
:1031900054E7144E134C0694D6F800B0B3F910401F
:1031A000D3F808A04AE706F6D436B7E501339AB259
:1031B000614401F2A45309EB430309EB4101013CD3
:1031C000A1F8CC4AA3F804A0DAE4044601220021C5
:1031D000EEE701339AB2C2E728100120C8F30020BD
:1031E0001C0A01202C100120220A012010B54FF4E6
:1031F00000510446094823F09DF90948042123F0B1
:103200009BF9204600F090FE0A230046013BFCD1CA
:1032100003480421BDE8104023F08CB9000C0240A3
:103220000008024010B54FF400510446094823F04D
:1032300083F90948042123F07FF9204600F074FE49
:103240000A230046013BFCD103480421BDE810409D
:1032500023F070B9000C0240000802402DE9F04F45
:10326000082093B00121002424F04CF801254FF4EC
:103270000053022702A9E54802938DF80E408DF80D
:103280000F408DF80D708DF80C5023F0C5F82946CD
:10329000042024F037F8042602A9DD488DF80E40FA
:1032A0008DF80F408DF80D708DF80C50029623F0BC
:1032B000B3F83146D64823F03DF92020FFF7B2FF9E
:1032C000CA20FFF7AFFFC320FFF790FF0820FFF7EA
:1032D0008DFF5020FFF78AFFCF20FFF7A3FF204686
:1032E000FFF784FFC120FFF781FF3020FFF77EFF4B
:1032F000ED20FFF797FF6420FFF778FF0320FFF72B
:1033000075FF1220FFF772FF8120FFF76FFFE820A3
:10331000FFF788FF8520FFF769FF2046FFF766FF6C
:103320007820FFF763FFCB20FFF77CFF3920FFF702
:103330005DFF2C20FFF75AFF2046FFF757FF342090
:10334000FFF754FF3846FFF751FFF720FFF76AFFFA
:103350002020FFF74BFFEA20FFF764FF2046FFF72E
:1033600045FF2046FFF742FFB120FFF75BFF2046F5
:10337000FFF73CFF1B20FFF739FFB620FFF752FF96
:103380000A20FFF733FFA220FFF730FFC020FFF72E
:1033900049FF1020FFF72AFFC120FFF743FF10204D
:1033A000FFF724FFC520FFF73DFF4520FFF71EFF75
:1033B0001520FFF71BFFC720FFF734FF9020FFF712
:1033C00015FF3620FFF72EFFC820FFF70FFFF22072
:1033D000FFF728FF2046FFF709FFB020FFF722FF85
:1033E000C220FFF703FFB620FFF71CFF0A20FFF7FC
:1033F000FDFEA720FFF7FAFE2720FFF7F7FE304675
:10340000FFF7F4FE2A20FFF70DFF2046FFF7EEFE40
:103410002046FFF7EBFE2046FFF7E8FEEF20FFF720
:10342000E5FE2B20FFF7FEFE2046FFF7DFFE2046DD
:10343000FFF7DCFE2846FFF7D9FE3F20FFF7D6FE58
:10344000F620FFF7EFFE2846FFF7D0FE2046FFF7F5
:10345000CDFE0620FFF7CAFE2C20FFF7E3FEC824AE
:103460000046013CFCD12620FFF7DCFE0120FFF7DF
:10347000BDFEE020FFF7D6FE0F20FFF7B7FE2920A4
:10348000FFF7B4FE2420FFF7B1FE0C20FFF7AEFEDD
:103490000E20FFF7ABFE0920FFF7A8FE4E20FFF736
:1034A000A5FE7820FFF7A2FE3C20FFF79FFE092033
:1034B000FFF79CFE1320FFF799FE0520FFF796FE0D
:1034C0001720FFF793FE1120FFF790FE2046FFF72D
:1034D0008DFEE120FFF7A6FE2046FFF787FE1620AF
:1034E000FFF784FE1B20FFF781FE0420FFF77EFE1E
:1034F0001120FFF77BFE0720FFF778FE3120FFF752
:1035000075FE3320FFF772FE4220FFF76FFE0520A5
:10351000FFF76CFE0C20FFF769FE0A20FFF766FE3E
:103520002820FFF763FE2F20FFF760FE0F20FFF734
:103530005DFE1120FFF776FEC8240046013CFCD159
:103540002920FFF76FFE2C20FFF76CFE4FF0806004
:10355000012123F007FF4FF40000012123F0D2FEE8
:103560006F20012123F0CEFE2A4803210E2222F0F3
:10357000F1FF284804210E2222F0ECFF2548062105
:103580000E2222F0E7FF23480B210E2222F0E2FF59
:1035900020480C210E2222F0DDFF022341F65802C2
:1035A0001C488DF80D3002A98DF80C3002928DF870
:1035B0000E408DF80F4022F02FFF214616480922B9
:1035C00022F0C8FF14480121092222F0C3FF12484B
:1035D00008210E2222F0BEFF0F4809210E2222F000
:1035E000B9FF0D480A210E2222F0B4FF0E220A482C
:1035F0000B2122F0AFFF40F603730748029302A9A4
:1036000022F00AFF024806210E2207E0000C0240C9
:1036100000080240000002400004024022F09AFF2D
:103620006F4807210E2222F095FF0E226C480A21D6
:1036300022F090FF4FF498636948029302A922F0A8
:10364000EBFE684803210E2222F084FF0E2265481B
:10365000062122F07FFF48236248029302A922F04C
:10366000DBFE0E2260480A2122F074FF4FF48063D3
:103670005D48029302A922F0CFFE5C4806210E228B
:1036800022F068FF594807210E2222F063FF5748B5
:103690000A21092222F05EFF54480B210E2222F05B
:1036A00059FF092251480C2122F054FF4FF4E653F0
:1036B0004E48029302A922F0AFFEC0200721042247
:1036C00023F00EFD4FF4003023F00AFE012023F01A
:1036D00013FD3D2023F0E2FE0028FAD002A823F0DB
:1036E000EBF9002401254FF0090C4FF01D0E0321CA
:1036F00040F2171240F20D1740F2431640F2471302
:1037000002A8CDF818C0CDF820E009910C920A97D4
:103710000B960D93079502940394049405940E94CC
:103720000F94109423F078F912A8582300F8443D20
:1037300006238DF805308DF806408DF8075023F0EC
:10374000D5FB1E214FF4F07C4FF4A07E4FF0504289
:103750004FF48063039702914FF0040B02A94FF0DE
:10376000020A4FF0FF0940F2E318052720480E92A5
:103770000C93CDF840C0CDF844E0059608941D4E5A
:1037800009940A940B94CDF810B0CDF818A0CDF898
:103790001C90CDF83C800D9723F0E8F902A916485B
:1037A0000E9623F0E3F9284623F0DAF9294610486B
:1037B00023F054FA2946104823F050FA284623F003
:1037C000CFF9204623F098F9284623F087F90B49D2
:1037D0000B4A0C4B0D7016601D7013B0BDE8F08FD6
:1037E00000080240000C0240001402400018024091
:1037F00084680140005802D00469014000AB0120F8
:1038000004AB012008AB012040B1012805D1074AD3
:10381000074B08491160187070477047034A044B02
:103820004FF0504111601870704700BF04AB012089
:1038300008AB0120005802D010B5D8B1012815D02E
:103840000E4B1B786BB10E4C002308200121237016
:1038500023F012FB022023F083F92378002BFCD005
:1038600010BD0120BDE8104023F07AB9054823F0CF
:10387000A1FAE5E7044823F09DFAE1E700AB012057
:103880003820012004690140846801400D4B1978FB
:1038900030B471B101290AD10B4C4FF050450846A4
:1038A00000222560FF2130BC1A70FFF7C5BF30BC75
:1038B0007047054A054810600122104630BC1A7056
:1038C000FFF7BABF08AB012004AB0120005802D0BB
:1038D00008B5082023F0FAFA0820002123F0CCFADA
:1038E000014B01221A7008BD3820012010B540207C
:1038F00082B0012123F006FD02A94FF4005341F8E4
:10390000083D032200230124694606488DF804403F
:103910008DF805208DF806308DF8073022F07CFDFB
:1039200002B010BD0018024018B919B1012906D023
:103930007047704704484FF4005122F0FBBD024825
:103940004FF4005122F0F8BD001802402DE9F0417B
:103950008AB000248046F0264FF4A0754FF416304C
:10396000ADF80460ADF806508DF808402FF092FCD9
:10397000074639460DF1040E224623464046CDF84F
:1039800014E0ADF81C608DF81040ADF82040ADF8A3
:103990002240ADF81840ADF81A40ADF81E5003971C
:1039A000FEF710FE0C4B04AA1A60FCF75BFE0B4AF4
:1039B000116813685B1AB3F5FA7F05D200461368E5
:1039C0005B1AB3F5FA7FF9D3FCF738FD03982FF0B3
:1039D00069FC0AB0BDE8F08188AA01200CAB012087
:1039E000054A116813685B1A984204D900461368A7
:1039F0005B1A8342FAD370470CAB0120024B1A6862
:103A000001321A60704700BF0CAB0120014608B5B7
:103A100001482FF0E3FFFEE76016040870B525F0BB
:103A2000F5F9294B294A2A49596007200021F02439
:103A300082F823409960186082F8231000F058F84B
:103A4000244CFCF7DDFB244830F018F800F0FEF9B8
:103A5000FDF7CCFDFFF702FCFCF730FD1F48FFF738
:103A600075FF44F61F6628F05BFE27F09BF9FFF711
:103A70003DFF00F0FFFAFCF799FB2568062003E004
:103A800027F0AAF906280BD023685B1BB342F7D9AD
:103A9000062805D01248FFF759FF1248FFF7B6FF76
:103AA000002028F057FE48B10F482FF0E7FF002014
:103AB0000146FFF739FF03F037F8FEE70848FFF744
:103AC00045FF0A48FFF7A2FF10E000E000ED00E02C
:103AD0003F9002000CAB012074160408A8EF030805
:103AE00058F703088C160408A0160408AC1604083E
:103AF0002DE9F0437E2099B00121002423F002FC3F
:103B00000227BE488DF8047005210C2218AE8DF8EE
:103B100005708DF806408DF8074022F01BFD0C2241
:103B2000B648062122F016FD6023B44846F8603DF1
:103B3000694622F071FC0C222146B148012522F091
:103B400009FD6946AE48009522F066FC2146AD4865
:103B50000C2222F0FFFC2946AA480C2222F0FAFC93
:103B6000A84808210C2222F0F5FCA64809210C22C5
:103B700022F0F0FCA3480A210C2222F0EBFCA14821
:103B80000E210C2222F0E6FC0C229E480F2122F08E
:103B9000E1FC4CF2037369469A48009322F03CFC26
:103BA000214699480C2222F0D5FC294696480C2241
:103BB00022F0D0FC944807210C2222F0CBFC924842
:103BC00008210C2222F0C6FC8F4809210C2222F089
:103BD000C1FC8D480A210C2222F0BCFC8A480B2132
:103BE0000C2222F0B7FC0C210A46874822F0B2FCD6
:103BF00085480D210C2222F0ADFC83480E210C22B9
:103C000022F0A8FC0C2280480F2122F0A3FC4FF6E2
:103C1000837369467C48009322F0FEFB21467B4873
:103C20000C2222F097FC294678480C2222F092FCC4
:103C3000394676480C2222F08DFC744803210C2270
:103C400022F088FC714804210C2222F083FC6F488A
:103C500005210C2222F07EFC6C480B210C2222F064
:103C600079FC0C210A46694822F074FC67480D2152
:103C70000C2222F06FFC65480E210C2222F06AFC17
:103C80000C2262480F2122F065FC4FF63F03694683
:103C90005E48009322F0C0FB21465D480C2222F0D2
:103CA00059FC29465A480C2222F054FC5848042159
:103CB0000C2222F04FFC564805210C2222F04AFC2F
:103CC000534808210C2222F045FC0C2250480F21B9
:103CD00022F040FC48F2331369464D48009322F02D
:103CE0009BFB2846294623F025FB4FF010090423AF
:103CF00007224FF4C07C4FF4006E06A94FF0400835
:103D00004FF400560DA808930F9306970A970B9748
:103D10000C970D950E941394159407920992CDF873
:103D20004090CDF84480CDF848C0CDF850E01696CC
:103D3000179122F0F5F80823059402950495039352
:103D40000120202122F018FA04460028F8D102A808
:103D500022F088F90520FFF743FE02210822012303
:103D600005940291039204930120202122F004FA89
:103D700004460028F8D102A822F074F90321082291
:103D8000042305940291039204930120202122F040
:103D9000F3F90028F9D102A822F064F901202021CA
:103DA00022F0EAF90028F9D102A822F05BF90420F8
:103DB0000821012240F231230290039104920593DD
:103DC0000120202122F0D8F90028F9D102A822F000
:103DD00049F940F2AB2022F065F90120202122F0C0
:103DE000CBF90028F9D14FF0504343F8040B13F1FD
:103DF0003E5FFAD119B0BDE8F08300BF0004024075
:103E000000080240000C0240001002400014024072
:103E10000018024010B4002371B1C35401338B4227
:103E2000FBD1037823B10CE010F8014F944208D184
:103E300001338B42DAB2F7D103485DF8044B2FF01F
:103E40001DBE5DF8044B7047C01604082DE9F04113
:103E50004FF4801088B0012123F084FA2020012142
:103E60002F4D304F23F04EFA2020012123F04AFA43
:103E70002020012123F046FA28460721052222F0BE
:103E800069FB28460821052222F064FB08AE0522C2
:103E90002846092122F05EFB802346F81C3D0024C1
:103EA0000223284631468DF808308DF809308DF808
:103EB0000A408DF80B4022F0AFFA4FF48073314680
:103EC000284601934FF4007822F0A6FA314628469E
:103ED000CDF8048022F0A0FA384623F023FC4FF4FA
:103EE000827518220723384603A9ADF81820ADF8CB
:103EF0001C30ADF81680ADF80C40ADF81040ADF8B0
:103F00001240ADF81440ADF81A40ADF80E5023F051
:103F100071FC3846012123F029FD08B0BDE8F0818D
:103F2000001402400050014010B504460A48022126
:103F300023F0E2FD0028F9D02146074823F0A2FD36
:103F40000548012123F0D8FD0028F9D0024823F0CC
:103F500095FDC0B210BD00BF0050014010B5044631
:103F60000548022123F0C8FD0028F9D02146024867
:103F7000BDE8104023F086BD0050014008B505485B
:103F8000012123F0B9FD0028F9D0024823F076FD85
:103F9000C0B208BD0050014008B52EF071FD1623D7
:103FA00003604FF0FF3008BD0020704770B51E1E43
:103FB00013DD1446951903E0FCF78EF9AC420CD0E2
:103FC00014F8010B0A28F7D10D20FCF785F914F835
:103FD000010CFCF781F9AC42F2D1304670BD00BF54
:103FE0000020704738B50C4B0C4A186801449142C8
:103FF0000FD90B4C04F10C0514F8010FFCF76CF908
:10400000AC42F9D12EF03CFD0C2303604FF0FF30A1
:1040100038BD196038BD00BF0000002000B074D06A
:10402000CB1604084FF4005353600020704700BFC4
:10403000012070470000000008B54B2101228220BA
:10404000FDF726FC82204B210022BDE80840FDF749
:104050001FBC00BF10B5042104468220FDF74EFBB3
:1040600020EA0402D2B282200421BDE81040FDF70C
:104070000FBC00BF70B5012086B0014623F042F9A5
:104080004FF48040012123F06DF906A94FF400465A
:10409000002441F8086D4A488DF814408DF8174007
:1040A00022F0BAF90F21204623F06AFD01250C23E6
:1040B00002A802968DF80D308DF80C408DF80E5048
:1040C00021F092FC0F23282201A88DF804208DF8FE
:1040D00005308DF806308DF8075022F007FF394B78
:1040E000394E1C7021466A46022382203570748046
:1040F000B480FDF75FFC9DF800109DF8012040F6AC
:10410000110342EA01229A4257D10321022282205E
:10411000FDF7BEFB0520FFF763FC2246032182204A
:10412000FDF7B6FB2846FFF795FF0220FFF792FF49
:104130000820FFF78FFF2A460A218220FDF7A8FBFF
:10414000202148228220FDF7A3FB0520FFF748FC31
:104150002A4621218220FDF79BFB17218220FDF7B3
:10416000CDFA224617218220FDF792FB41219A22A7
:104170008220FDF78DFB22464A218220FDF788FB35
:10418000FFF75AFF562107228220FDF781FB2A46BE
:1041900058218220FDF77CFB402103228220FDF77D
:1041A00077FB0B21FF228220FDF772FB2A460921B3
:1041B0008220FDF76DFB06B070BD0448FFF726FCBA
:1041C000000002403C20012010AB0120DC16040856
:1041D000F0B5822083B04021FDF790FA03062E4C03
:1041E0000AD42E4A01232370536892686380A28008
:1041F000FFF722FF03B0F0BD00254D2101AA0423E3
:1042000082202570FDF7D6FB9DF804209DF805302F
:104210009DF807109DF80600214D43EA022340F661
:10422000B8329342D5BFC3F57163C3F56D630E33E6
:10423000083385FB036541EA00201A4A17491D44EB
:10424000A0F5B470DB17C3EBE50382FB0052C01787
:10425000EF2BA8BFEF23C0EB620240F23F15486886
:1042600023EAE373AA42A8BF2A468D6822EAE272D3
:10427000834294BFC3EB0006C0EB0306AA4294BF7F
:10428000C2EB0507C5EB02073E44052E87BF4B6016
:104290008A602A460346A9E710AB01203C20012092
:1042A00089888888E9A28B2E0A4B1A7810B52AB122
:1042B0000949DA6809688A1A032A00D810BD00245F
:1042C00082200B21FF221C70FDF7E2FABDE81040AE
:1042D000FFF77EBF3C2001200CAB012010B503226C
:1042E00060218220FDF7D4FA0A20FFF779FB6121D3
:1042F0008220FDF703FA622104028220FDF7FEF915
:10430000A4B2204384B221460D482FF067FB07EE8C
:10431000904AF8EE677A17EE900A2DF00BFD002216
:10432000084B2DF05BFD04A3D3E900232DF080FEA4
:104330002EF016F8C0B210BD6666666666C65240BC
:10434000F41604080000084008B54FF4004021F0BE
:10435000ABFB48B14FF4004021F0B0FB034A044BE3
:104360001268DA6001221A7008BD00BF0CAB012090
:104370003C200120AFF300800F49104B994210B44C
:104380000BD2C843184420F003000D4C0430002326
:10439000E258CA5004338342FAD11E481E494FF0F6
:1043A00000028842B8BF40F8042BFFF6FAAF5DF870
:1043B000044BFFF733BB00BF00000020C4F3002014
:1043C00044A3050808B502482FF058FBFEE700BFDC
:1043D000F816040808B502482FF050FBFEE700BFAE
:1043E0001817040808B502482FF048FBFEE700BF85
:1043F0002C17040808B502482FF040FBFEE700BF69
:10440000F816040808B502482FF038FBFEE700BF95
:1044100040170408C8F3002088360220704700BF08
:1044200070B50C4690E82600C368D61AC1EB0505A6
:1044300009D1002D12DB6FF00043636010D16FF0E3
:104440000043236070BD2846314609F0A5FE606038
:1044500035B9002EF3DA054B236070BD034B636062
:104460003046294609F098FE206070BD01000080AA
:1044700070B5164C6268E3682668A56820696169B2
:1044800002EBD27203EBD37306EB620605EB630516
:1044900000042660A56009F079FEA3696060616987
:1044A000180409F073FE94E80A00A268E06003EBC8
:1044B000D37600EBD075A1EB6601A2EB65020B444D
:1044C0001044E36121602062A26070BD542001208D
:1044D000064B10B498681C685968DA685C62986288
:1044E000D9621A635DF8044B704700BF5420012065
:1044F000F8B5164D164C2A68E16A236B6160E360DB
:10450000F2B1626B1068C768006901EBD17203EB0E
:10451000D376A7EB6202A0EB66062260A660206954
:104520000A4433440004E261236209F035FE034685
:1045300001464FF480306B6009F02EFE6061F8BDDB
:10454000626AA66A2260A660E9E700BF0400002054
:1045500054200120104B996BD868F0B40F4D5C6863
:104560001F689E684A1C85FB02C54FEAE27CCCEBC3
:10457000A50503EBC10105EB850504EBD47400EB45
:10458000D070A2EB450207EB640706EB6006CF6331
:104590000E649A63F0BC704754200120676666661B
:1045A0002DE9F843344B354D1A68354BC5F8943036
:1045B0006FF00041002AC5F88C10C5F89010C5F8BE
:1045C000983056DD2F4899461F46984600684FEAB6
:1045D000C20C8E460E460C4600230EE09742B8BF32
:1045E0001746C2185268B2420FDB424501DD9146C0
:1045F0009046083363450DD00C46C258A242EDDA0E
:104600001146C2185268B242EFDA08336345964643
:104610001646F1D1C5F89010C5F89870C5F88CE031
:10462000C5F89490791AC6EB08062869C5F89C105D
:104630004FF400140004C5F8A060C5F8A440C5F804
:10464000A84009F0A9FD0646A869D5F8A010000405
:1046500009F0A2FDAB69B042D4BFC5F8AC00C5F803
:10466000AC602146180409F097FDC5F8B000BDE81C
:10467000F88302263146D8E704D6012054200120D1
:1046800001000080ECD50120214BF0B4D3F8B450E8
:10469000D3F8B84055BB4CBB93E8070001EBD1768B
:1046A0002844D3F89870DFF868C018607610851930
:1046B0001444BD429C6021DDB81BCCF80000844648
:1046C000DA68D3F89460124802EBD2756D1067195E
:1046D000B74203DCD0F88C60B74201DA741B846007
:1046E00022446144D9611A62F0BC70470949002034
:1046F0006FF000420860C3F8BC20CDE7DCF89020E2
:104700009542BCBFC6EB0200CCF800008446D7E758
:10471000542001200400002070B5304C304B20693B
:104720001B686169C4F8C8304FF4803200236FF011
:10473000004501260004C4F8D420C4F8D820C4F8E9
:10474000BC50C4F8CC30C4F8D030C4F8B830C4F889
:10475000B430C4F8C46009F019FDA36960606169F0
:10476000180409F013FD1F4B1F4A1968E06052F846
:104770002130054623BB1D486063043A52F8041FEC
:1047800029BB0133042BF9D118490B686668D86836
:10479000196906EBD67205EBD573A0EB6202A1EBAB
:1047A00063032260A360FFF76FFF2268A368E662DD
:1047B00025636262A3620E48BDE870401CF040BBF6
:1047C0000A4B4FF48E7202FB01316163DDE74FF457
:1047D0008E7101FB03016163D7E700BF5420012004
:1047E00098840120D8B5012040BD0120DCB501200E
:1047F0000C00002030B50A4D85B000242346092165
:10480000084A01A82FF060FB01A8012120F0ACFAB2
:1048100001340A2C45F8040FF0D105B030BD00BFBB
:104820002C2101208417040810B5002484B02346ED
:104830000921064A01A82FF047FB013401A820F006
:10484000C3FA0A2CF3D104B010BD00BF84170408CA
:10485000054800234FF0FF31C1500833502B034A65
:10486000FAD1002393637047902001205420012047
:1048700070B5184D184E00234FF4A071A82229617D
:10488000AA61F361C5F80431C5F8083105F13C01AE
:104890004FF0FF32CA500833502B0E4CFAD1002390
:1048A000A363FFF77DFE4BF23331D4F8AC0009F07F
:1048B00073FCD4F8B030084A70609842C6BFD4F890
:1048C000AC10516001464FF4803009F065FC68611E
:1048D00070BD00BF542001200400002010B5074C1B
:1048E000FFF7A2FF064B002204F12000C3F8C4200A
:1048F0001CF0A6FA0123636310BD00BF0400002072
:104900005420012070B5104C636BCBB10F4DA26BDE
:104910002B680D480E4E00219A4261630BD0FFF7C1
:10492000A7FF2A683368A263E363FFF7F5FEBDE8DB
:104930007040FFF75FBFC26B33689A42EFD1F4E774
:10494000FFF7CCFFE2E700BF0400002090BD01208C
:1049500050BD012010B5074C074BD4F8AC1059607E
:104960004FF4803009F018FC6061BDE81040FFF79B
:104970007FBD00BF542001200400002010B5074C6B
:10498000074BD4F8B01059604FF4803009F004FCA4
:104990006061BDE81040FFF76BBD00BF54200120EF
:1049A00004000020F0B5A74DD5F8C43083B004460C
:1049B0005BB90578002D5CD1A34B42681B689A4215
:1049C00000F0C180284603B0F0BD007800284BD12C
:1049D0009E4A6368126893426FD09D4A1268934260
:1049E00000F08A809B4A1268934200F0B2809A4A93
:1049F0001268934200F0BA80984A1268934200F01D
:104A00009980974A1268934200F0C6808E4A1268D5
:104A1000934200F0F480934A1268934200F0C580FC
:104A2000914A1268934200F0D780904A12689342EC
:104A300000F0ED808E4A1268934200F039818D4A71
:104A4000126893423CD18C4800234FF0FF31C15093
:104A50000833502B7B4AFAD1536B8849C3F8DC10DA
:104A60000023936301272CE0012805D0002003B028
:104A7000F0BD184603B0F0BD744A636812689342F3
:104A800051D0734A126893424DD0724A12689342D1
:104A90007AD0714A1268934276D0704A1268934273
:104AA00003D06F4A12689342E0D14FF48033C5F8C7
:104AB000D830C5F8D430002085E7714B1B684BB364
:104AC0000027704A166816B1384603B0F0BD217A47
:104AD0006D4808F021FE0028F6D0D5F828316B4A41
:104AE000013382FB0312A2EBE37202EB42029B1A38
:104AF0003046C5F8283166E7614B1B68002BDFD1D3
:104B00004FF48020696909F041FB4042C5F8B400C8
:104B10000127D6E74FF48020696909F037FB0127A8
:104B2000C5F8B400CDE7564B186800289ED1C5F8EB
:104B3000B40048E74FF6FA22554BC5F8D820C5F81F
:104B4000D4300127BDE7FFF7DDFE524B01201D6089
:104B500039E74B4B1B68002BB2D14FF480206969B9
:104B600009F014FB0127C5F8B800AAE7444B1B68FD
:104B7000002BA5D14FF48020696909F007FB404262
:104B8000C5F8B80001279CE73D4B186800287FF462
:104B90006DAFC5F8B80016E73D4BC5F8D8304FF6F5
:104BA000FA23C5F8D43001278BE7D5F80C21254B23
:104BB000D2F1010238BF0022C5F80C21002A37D0FB
:104BC0001E6898685968DA685E629862D9621A63EA
:104BD0000127FFF7BFFE74E7294A1A491368D3F18A
:104BE00001036FF0004038BF00231360C5F8BC001C
:104BF00013B34B6B284AC3F8DC20012761E7254B30
:104C0000C5F80C0101271F60FFF768FE59E7D5F8CA
:104C100010310C4AD3F1010338BF0023C5F810311D
:104C2000002B3FD0536B1D4AC3F8DC20012748E717
:104C3000FFF75EFC012744E74B6B194AC3F8DC2001
:104C400001273EE754200120B4BB0020A4BB002074
:104C5000A8BB00209CBB0020A0BB0020B0BB002054
:104C6000ACBB0020B8BB0020BCBB0020C0BB0020F8
:104C7000C4BB0020C8BB002090200120D817040826
:104C8000040000207CBD01204400002056555555ED
:104C90001E05010084BD012090170408B017040808
:104CA000A0170408536B0A4AC3F8DC20012708E761
:104CB000084EAB6B00931421074A084B30460BF0AB
:104CC00003FB6B6BC3F8DC60FFF744FC0127F8E6DD
:104CD000B817040868210120C4170408CC17040879
:104CE00038B5124D124C6868D4F8D81009F04EFA55
:104CF000034601464FF480306B6009F04DFA6B6853
:104D0000D4F8AC20606193420BDBD4F8B02093421E
:104D100003DCBDE83840FFF7ABBBBDE83840FFF728
:104D20002DBEBDE83840FFF715BE00BF04000020CF
:104D30005420012070B51E4C636BD4F8BC201B6856
:104D4000D86882422ED01B4D696809F01FFA000C0A
:104D50006169000409F01AFA626B63681268696895
:104D600003EBD373A0EB63031069236009F00EFA21
:104D7000000C6169000409F009FA626BE3681268CB
:104D80002568D6686168C4F8BC6003EBD376A0EBF5
:104D900066001269A060034429442362C4F8C0205D
:104DA000E16170BD1A69D4F8C0309342CBD1F8E705
:104DB0005420012004000020124BD3F8CC20D3F85B
:104DC0002C118A4210B419DDD3F830010E4C411C6D
:104DD0000829C3F8301104BF0021C3F830110B4972
:104DE00054F82000C3F8D00081FB0201A1EBE2726D
:104DF00002EB420252000632C3F82C215DF8044B4C
:104E0000704700BF5420012054170408ABAAAA2AF7
:104E100010B5134CD4F8C430CBB1124AD4F8CC300E
:104E200012680133C4F8CC3092B9D4F8D430B3F559
:104E3000803F01D0FFF754FFD4F8B430084A13B9CB
:104E4000D2F8B8301BB1BDE81040FFF71DBC10BD53
:104E5000FFF770FFD4F8D430B3F5803FEAD1EBE729
:104E60005420012004000020064B10B41A699C69EC
:104E7000014604FB02F2D3F8C8005DF8044B2EF0A3
:104E80004FBD00BF542001202DE9F04FA04D4368D5
:104E90002A6A934283B081460C4613DCA9688B4290
:104EA000B4BF04230023D9F80C108A4210DBAA688F
:104EB000914280F2E58004221A420CD0002003B017
:104EC000BDE8F08FD9F80C108A424FF00803EEDAF3
:104ED00008221A42F2D1D9F8007028688C4987421A
:104EE000C0F2C180C969D9F808608F42C8BF43F0D9
:104EF0000203B04240F3BE8042F001021A42DDD10B
:104F0000844EDFF80C827168381A09F03FF9D5F841
:104F10000871D9F80420AB687168D5F818A007EBC0
:104F200020402060D01A09F031F9D5F80421D9F8D1
:104F300008702B687168AAEB204002446260F81A7E
:104F400009F024F9D5F80831D9F80C20AF68716858
:104F5000AE6903EB2040A060D01B09F017F9D5F82B
:104F600004116368A6EB20404218002BE260C0F2F7
:104F70009180D8F818108B42ACBF0423002321681D
:104F80000029C0F2C28028698142A8BF43F0020311
:104F9000002AC0F2B880A9698A42ACBF042200226C
:104FA000A1680029C0F2AC8028698142A8BF42F004
:104FB00002021A4282D1A8692D69019500F1FF3CD5
:104FC00005F1FF3821E0D4F80090A7686568C9EBC7
:104FD0000706E76806FB05F6ED1B96FBF5F54D4465
:104FE000002699422FD0002EA560E66068DBB04213
:104FF000D4BF04220022002D66DB019EAE42D8BF42
:1050000042F002021A427FF459AF52EA030775D008
:10501000002B14BF194611460E07D4D44D073BD5BB
:105020006568D4F80090A668E768C0EB050BC9EB8B
:10503000060606FB0BF6C7EB050A96FBFAF5994246
:105040004D446646CFD1002E84E8600052DBB0426A
:10505000D4BF04230023002D49DB0199A942D1DCF0
:1050600043F00203CEE7D9F80860B04243F00103F1
:105070003FF742AFE9698E42C8BF42F002023DE706
:10508000D9F800702868224987424FF00002BFF625
:1050900029AFE8E7082372E711F0020517D0D4F82A
:1050A00004902568E668A768C5EB080BC9EB0606FF
:1050B0007D1B06FB0BF696FBF5F64E44454690E746
:1050C000002D4FF0080298DA42F001029AE711F041
:1050D000010611D094E84002E768C7EB090BA76806
:1050E0000BFB06FBBE1B9BFBF6F64E4479E743F039
:1050F000010387E70823AEE7354672E70120DEE6C5
:1051000042F0010255E708224AE743F001033FE776
:1051100054200120040000200368002B2DE9F00F2B
:10512000404F52DB3C69A3424FDA4268002A4CDB15
:10513000BD69AA4249DA8668002E46DBB44244DDE6
:10514000D0F80CC0BCF1000F3FDB65453DDDF61A21
:10515000C2EB0C0C86EAE675A5EBE675002EACBF3B
:105160004FF001084FF0FF388CEAEC76A6EBEC76B6
:105170006D00BCF1000F4FEA4606ACBF4FF0010CCA
:105180004FF0FF3CB542D7F8C8A02BDD0AEB030770
:1051900002FB04F95FFA81FB07F809B08768BB429C
:1051A000A6EB65010ED0434400290AEB030703DB9D
:1051B0006244491B02FB04F907F809B087689F4263
:1051C0003144F0D1BDE8F00F7047174BD7F83421C8
:1051D0001B681649D868531CC7F83431BDE8F00F76
:1051E0002DF03CBE02FB04A7C9B2F954C768BA420D
:1051F000A5EB6609E6D0624402FB04FB04FB0CF459
:1052000000E06244B9F1000F0AEB0B07A4BF43446E
:10521000C6EB0909F954C7689742A344A944F0D1E1
:10522000D0E700BF5420012028EF0020EC1704082D
:1052300010B50C460549FFF727FE00B910BD214601
:105240000248BDE81040FFF767BF00BF8C21012076
:105250002DE9F0432F4A304C126823689A1AC2F3A2
:10526000160185B00746002940D032F0FF4246D4EF
:10527000C2F50002D5186168A268E068019203EBEC
:10528000010902EB00084D45CDF80C803EDA00958F
:105290000295684605F500053946FFF7C9FFA9459F
:1052A000F5DCA268E1682368606802EB0108144637
:1052B00018441A4A1268A21AC2F3160129B132F030
:1052C000FF4215D4C2F500021444444500930290F5
:1052D00009DA01940394684604F500043946FFF79F
:1052E000A7FF4445F5DB05B0BDE8F0831D46C2E7E6
:1052F000013A6FEA42226FEA52220132E2E7013AB2
:105300006FEA42226FEA52220132B1E74846144660
:10531000CFE700BF98D6012054200120F4D501200A
:105320002DE9F041DFF81481D8F80030002B63DD5F
:105330003F4C404E274600253168D4F828C1AA01C9
:105340008B188A5859681068C4F8480103C9526814
:10535000C4F84C21C4F85001C4F854111A8ABCF1A5
:10536000000F03D1D10527D5110612D4596BB9B15D
:10537000B3F91200272841D0920611D4186B0A689D
:1053800003689A4228D0D4F8D0102B484031FFF758
:105390004FFFD8F800300135AB42CDDCBDE8F081DD
:1053A000D4F8D0102448B031FFF742FFD8F80030CD
:1053B0000135AB42C0DCF1E77B6B5B6C002BE8D0C6
:1053C0001006E6D41C486321FFF732FFD8F80030FE
:1053D0000135AB42B0DCE1E74A6843689A4217D036
:1053E000D4F8D0101448E731FFF722FFD8F8003086
:1053F0000135AB42A0DCD1E7BDE8F0810E48B82111
:10540000FFF716FFD8F800300135AB4294DCC5E752
:10541000BCF1000FBDD0D4F8D01007486031FFF7C1
:1054200007FFD8F800300135AB4285DCB6E700BF96
:1054300054200120C8D601209C210120ACD6012097
:105440002DE9F843124FD60C3B680C46054653F83D
:105450002610006808F09AFE0E4B53F8268081460D
:105460004146206808F092FE4146C0EB09082868D2
:1054700008F08CFE3B68814653F82610206808F03F
:1054800085FE48442060C5F80080BDE8F88300BF71
:10549000E0E4002004B304082DE9F04F85B0B1F139
:1054A000000A15461F46DDF838B0DDF83C80DDF80F
:1054B000409024DD0446002694E80A0001368DE879
:1054C0000A00002D2FD1002F38D19DE80C00A168D3
:1054D000029103EB09004244E3680092019010340A
:1054E00003937DB9CFB9029A039B42444B4468466B
:1054F000594602920393FFF79BFE5645DCD105B057
:10550000BDE8F08F284608F041FE03990290284636
:1055100008F03CFE0390002FE5D002A803A93A460C
:10552000FFF78EFFDFE7284608F030FE0199009074
:10553000284608F02BFE0190002FC6D0684601A92E
:105540003A46FFF77DFFC0E72DE9F0412D4B1A6881
:1055500084B0A2B92C4BD3F828115B6B002941D041
:1055600019682A480B6AD1240094CC68019409690F
:1055700002911021FFF790FF04B0BDE8F081244EA6
:10558000244D3368DFF89C80234F244A002473B1F4
:1055900013681D495BB94B6B9D4208D00434102C35
:1055A00005F58E75E8D033681C4A002BF0D154F80D
:1055B0000830002BF2D0EB6B93B9E1592A681848F8
:1055C000136A0091D16801911269029207210022A9
:1055D0000434FFF761FF102C05F58E75E3D1CBE79E
:1055E000F621EBE71A680E48136AD1240094D468B8
:1055F0000194126902920A460721FFF74DFF04B099
:10560000BDE8F08158BA0120542001207800002024
:105610007CBD0120DCB501207417040860BA0120AC
:105620007801002040BD01202DE9F047DFF86080BF
:10563000D8F80030002B84B0054623DD0026DFF8C3
:105640005490DFF854A03746D9F8003033449C6CAE
:105650008CB1DAF8D020236A0C482A440092E26820
:1056600001922269029203214FF48012FFF714FF86
:10567000A469002CEDD1D8F800300137BB4206F107
:105680005806E1DC04B0BDE8F08700BFE801002067
:1056900030D60120E4D50120542001202DE9F84F17
:1056A000DFF890A0214F0026AAF13C05D0463446F1
:1056B0005AF804305A1C26D028687968181A08F05D
:1056C00065FDD5F808217968D5F8189008EB040332
:1056D00002EB204B5B68AA68981A08F057FDD5F8D2
:1056E0000831D5F804219B450DDB2B69053BA9EB5F
:1056F00020499B4509EB020105DC8A4203DCAB69CA
:10570000063B994206DD0834502C06F10406CFD141
:10571000BDE8F88F064B58469A5908341CF0C4FE71
:10572000502C06F10406C3D1F2E700BF04000020AC
:105730003021012090200120074B10B41A699C6988
:10574000D3F8C81004FB022303EBD3735B10C854D7
:105750005DF8044B704700BF5420012010B5194C70
:10576000D4F8C43003B910BD0020FFF77DFBD4F896
:105770001031F3B9FFF7D4FDFFF7E6FED4F8283176
:10578000022B1AD0A1692369D4F8C82001FB033386
:1057900003EBD3735B106021D154FFF77FFFD4F884
:1057A0000801D4F804112269A369BDE810401CF077
:1057B00007BE6820FFF74CFDDCE770201021FFF7E3
:1057C00033FFDFE754200120F0B40F4F0F4ED7F81E
:1057D00000C005460FCD0CEB8C0407EB84040434A9
:1057E0000FC40CF1010C0CEA06062B682360002E96
:1057F00002DB3E60F0BC7047013E66F03F060136BA
:105800003E60F0BC704700BFB02101203F00008027
:105810000C49D1F804250B689A4211D00A4B501C50
:105820000340002B07DB0948C1F8043502EB820274
:1058300000EB82007047013B63F03F030133F2E766
:1058400000207047B02101203F000080B4210120DA
:1058500070B50D4606462EF0CBFD044628462EF0C8
:10586000C7FD421C944205D3241A301910F8013C9C
:105870002F2B01D0002070BD29462EF0F3FBD0F174
:10588000010038BF002070BD2DE9F04107460AF045
:105890000BFB00283DD1DFF89C80D8F800307F2B2F
:1058A00028DD0123C8F804321F4E002506E02046FB
:1058B0002DF0F8FCD8F800309D4227DA56F8044B5A
:1058C00039462046FFF7C4FF28B120460AF0ECFA1B
:1058D00010BB56F8044C204614493A4600230AF0FF
:1058E0009DFC013504460AF0DFFA0028DFD020468F
:1058F000BDE8F08108EB830101330D48C8F80030A2
:105900000122002B4860C8F80422CDDC0020BDE84D
:10591000F0813846BDE8F08108EB85056868BDE890
:10592000F0412EF049BD00BFBC260120CC66040822
:10593000DC1B0408B826012010B50446FFF7A4FFBD
:10594000002808BF204610BD2DE9F04F85B006465F
:1059500003915648012107F085FE00286ED1544975
:1059600002910B687F2B61DD0299524D0122C1F833
:1059700004224FF000094E4A02924B4592463CDD0C
:105980005AF8047F4FF0000B04E00BF10C0BBBF155
:10599000A80F2CD005EB0B031C7946FA04F3DB07A8
:1059A000F3D55BF8058038464146FFF751FF0028E4
:1059B00030D1384640492EF0F1FB18BB40462EF05E
:1059C000FBFC804640460AF06FFA424638B1002A96
:1059D000DBD0039B10461C7005B0BDE8F08F40463D
:1059E0000BF10C0B2DF05EFCBBF1A80FD2D102988D
:1059F000036809F101094B45C2DC0022104605B0DD
:105A0000BDE8F08F424638462C4900230AF006FCD8
:105A10008046D7E738460AF047FA0028C9D038460A
:105A20002EF0CAFC0246002AAFD0D2E701EB830277
:105A30001F48234951600133036095E7214B013032
:105A40001B6853F820402046FFF71EFF024630B384
:105A500010462F2101922EF0B1FD019AE8B100F11C
:105A6000010ADFF8509000244F4609EB040350462A
:105A70001D7946FA05F3D90705D5395901922EF05B
:105A8000F1FA019A18B10C34A82CEED1092503982B
:105A90000570104605B0BDE8F08F9246E1E721465B
:105AA0000948019207F0F4F9019AD1E7E41B0408D0
:105AB000B8260120341B0408385B0408CC660408AF
:105AC000DC1B0408B4BE0120EC1B04082DE9F041E6
:105AD00006463C202DF0DEFB104C804604F1A80564
